{
  "contractName": "Authorizable",
  "abi": [
    {
      "constant": false,
      "inputs": [
        {
          "name": "_addr",
          "type": "address"
        }
      ],
      "name": "deleteAuthorized",
      "outputs": [],
      "payable": false,
      "stateMutability": "nonpayable",
      "type": "function"
    },
    {
      "constant": true,
      "inputs": [
        {
          "name": "authorizerIndex",
          "type": "uint256"
        }
      ],
      "name": "getAuthorizer",
      "outputs": [
        {
          "name": "",
          "type": "address"
        }
      ],
      "payable": false,
      "stateMutability": "view",
      "type": "function"
    },
    {
      "constant": true,
      "inputs": [],
      "name": "owner",
      "outputs": [
        {
          "name": "",
          "type": "address"
        }
      ],
      "payable": false,
      "stateMutability": "view",
      "type": "function"
    },
    {
      "constant": false,
      "inputs": [
        {
          "name": "_addr",
          "type": "address"
        }
      ],
      "name": "addAuthorized",
      "outputs": [],
      "payable": false,
      "stateMutability": "nonpayable",
      "type": "function"
    },
    {
      "constant": true,
      "inputs": [
        {
          "name": "_addr",
          "type": "address"
        }
      ],
      "name": "isAuthorized",
      "outputs": [
        {
          "name": "",
          "type": "bool"
        }
      ],
      "payable": false,
      "stateMutability": "view",
      "type": "function"
    },
    {
      "inputs": [],
      "payable": false,
      "stateMutability": "nonpayable",
      "type": "constructor"
    },
    {
      "constant": false,
      "inputs": [
        {
          "name": "newOwner",
          "type": "address"
        }
      ],
      "name": "transferOwnership",
      "outputs": [],
      "payable": false,
      "stateMutability": "nonpayable",
      "type": "function"
    }
  ],
  "bytecode": "0x6060604052341561000f57600080fd5b336000806101000a81548173ffffffffffffffffffffffffffffffffffffffff021916908373ffffffffffffffffffffffffffffffffffffffff160217905550600260018161005e9190610102565b503360018081548110151561006f57fe5b906000526020600020900160006101000a81548173ffffffffffffffffffffffffffffffffffffffff021916908373ffffffffffffffffffffffffffffffffffffffff1602179055506001600260003373ffffffffffffffffffffffffffffffffffffffff1673ffffffffffffffffffffffffffffffffffffffff16815260200190815260200160002081905550610153565b81548183558181151161012957818360005260206000209182019101610128919061012e565b5b505050565b61015091905b8082111561014c576000816000905550600101610134565b5090565b90565b6105f7806101626000396000f300606060405260043610610078576000357c0100000000000000000000000000000000000000000000000000000000900463ffffffff1680632af10b7b1461007d5780633a3e8e84146100b65780638da5cb5b14610119578063cf1c316a1461016e578063f2fde38b146101a7578063fe9fbb80146101e0575b600080fd5b341561008857600080fd5b6100b4600480803573ffffffffffffffffffffffffffffffffffffffff16906020019091905050610231565b005b34156100c157600080fd5b6100d760048080359060200190919050506102d4565b604051808273ffffffffffffffffffffffffffffffffffffffff1673ffffffffffffffffffffffffffffffffffffffff16815260200191505060405180910390f35b341561012457600080fd5b61012c61031a565b604051808273ffffffffffffffffffffffffffffffffffffffff1673ffffffffffffffffffffffffffffffffffffffff16815260200191505060405180910390f35b341561017957600080fd5b6101a5600480803573ffffffffffffffffffffffffffffffffffffffff1690602001909190505061033f565b005b34156101b257600080fd5b6101de600480803573ffffffffffffffffffffffffffffffffffffffff1690602001909190505061045a565b005b34156101eb57600080fd5b610217600480803573ffffffffffffffffffffffffffffffffffffffff1690602001909190505061052f565b604051808215151515815260200191505060405180910390f35b6000809054906101000a900473ffffffffffffffffffffffffffffffffffffffff1673ffffffffffffffffffffffffffffffffffffffff163373ffffffffffffffffffffffffffffffffffffffff1614151561028c57600080fd5b6000600260008373ffffffffffffffffffffffffffffffffffffffff1673ffffffffffffffffffffffffffffffffffffffff1681526020019081526020016000208190555050565b600060018083018154811015156102e757fe5b906000526020600020900160009054906101000a900473ffffffffffffffffffffffffffffffffffffffff169050919050565b6000809054906101000a900473ffffffffffffffffffffffffffffffffffffffff1681565b6000809054906101000a900473ffffffffffffffffffffffffffffffffffffffff1673ffffffffffffffffffffffffffffffffffffffff163373ffffffffffffffffffffffffffffffffffffffff1614151561039a57600080fd5b600180549050600260008373ffffffffffffffffffffffffffffffffffffffff1673ffffffffffffffffffffffffffffffffffffffff16815260200190815260200160002081905550600180548091906001016103f7919061057a565b508060018080805490500381548110151561040e57fe5b906000526020600020900160006101000a81548173ffffffffffffffffffffffffffffffffffffffff021916908373ffffffffffffffffffffffffffffffffffffffff16021790555050565b6000809054906101000a900473ffffffffffffffffffffffffffffffffffffffff1673ffffffffffffffffffffffffffffffffffffffff163373ffffffffffffffffffffffffffffffffffffffff161415156104b557600080fd5b600073ffffffffffffffffffffffffffffffffffffffff168173ffffffffffffffffffffffffffffffffffffffff1614151561052c57806000806101000a81548173ffffffffffffffffffffffffffffffffffffffff021916908373ffffffffffffffffffffffffffffffffffffffff1602179055505b50565b600080600260008473ffffffffffffffffffffffffffffffffffffffff1673ffffffffffffffffffffffffffffffffffffffff16815260200190815260200160002054119050919050565b8154818355818115116105a1578183600052602060002091820191016105a091906105a6565b5b505050565b6105c891905b808211156105c45760008160009055506001016105ac565b5090565b905600a165627a7a7230582053751b803214d6a27f6471259c9004ae81112f385dccce26572eb207892c1adf0029",
  "source": "pragma solidity ^0.4.4;\n/**\n * @title Ownable\n * @dev The Ownable contract has an owner address, and provides basic authorization control \n * functions, this simplifies the implementation of \"user permissions\". \n */\ncontract Ownable {\n  address public owner;\n\n  /** \n   * @dev The Ownable constructor sets the original `owner` of the contract to the sender\n   * account.\n   */\n  function Ownable() {\n    owner = msg.sender;\n  }\n\n  /**\n   * @dev Throws if called by any account other than the owner. \n   */\n  modifier onlyOwner() {\n    require(msg.sender == owner);\n    _;\n  }\n\n  /**\n   * @dev Allows the current owner to transfer control of the contract to a newOwner.\n   * @param newOwner The address to transfer ownership to. \n   */\n  function transferOwnership(address newOwner) onlyOwner public {\n    if (newOwner != address(0)) {\n      owner = newOwner;\n    }\n  }\n\n}\n\n\n/**\n * @title Authorizable\n * @dev Allows to authorize access to certain function calls\n */\ncontract Authorizable is Ownable {\n\n  address[] authorizers;\n  mapping(address => uint) authorizerIndex;\n\n  /**\n   * @dev Throws if called by any account tat is not authorized. \n   */\n  modifier onlyAuthorized {\n    require(isAuthorized(msg.sender));\n    _;\n  }\n\n  /**\n   * @dev Contructor that authorizes the msg.sender. \n   */\n  function Authorizable() {\n    authorizers.length = 2;\n    authorizers[1] = msg.sender;\n    authorizerIndex[msg.sender] = 1;\n  }\n\n  /**\n   * @dev Function to get a specific authorizer\n   * @param authorizerIndex index of the authorizer to be retrieved.\n   * @return The address of the authorizer.\n   */\n  function getAuthorizer(uint authorizerIndex) external view returns(address) {\n    return address(authorizers[authorizerIndex + 1]);\n  }\n\n  /**\n   * @dev Function to check if an address is authorized\n   * @param _addr the address to check if it is authorized.\n   * @return boolean flag if address is authorized.\n   */\n  function isAuthorized(address _addr) view returns(bool) {\n    return authorizerIndex[_addr] > 0;\n  }\n\n  /**\n   * @dev Function to add a new authorizer\n   * @param _addr the address to add as a new authorizer.\n   */\n  function addAuthorized(address _addr) external onlyOwner {\n    authorizerIndex[_addr] = authorizers.length;\n    authorizers.length++;\n    authorizers[authorizers.length - 1] = _addr;\n  }\n  \n  /**\n   * @dev Function to delete a authorizer\n   * @param _addr the address to delete as a new authorizer.\n   */\n  function deleteAuthorized(address _addr) external onlyOwner {\n    authorizerIndex[_addr] = 0;\n  }\n\n}\n\n\n/**\n * Math operations with safety checks\n */\nlibrary SafeMath {\n  function mul(uint a, uint b) internal returns (uint) {\n    uint c = a * b;\n    assert(a == 0 || c / a == b);\n    return c;\n  }\n\n  function div(uint a, uint b) internal returns (uint) {\n    // assert(b > 0); // Solidity automatically throws when dividing by 0\n    uint c = a / b;\n    // assert(a == b * c + a % b); // There is no case in which this doesn't hold\n    return c;\n  }\n\n  function sub(uint a, uint b) internal returns (uint) {\n    assert(b <= a);\n    return a - b;\n  }\n\n  function add(uint a, uint b) internal returns (uint) {\n    uint c = a + b;\n    assert(c >= a);\n    return c;\n  }\n\n  function max64(uint64 a, uint64 b) internal pure returns (uint64) {\n    return a >= b ? a : b;\n  }\n\n  function min64(uint64 a, uint64 b) internal pure returns (uint64) {\n    return a < b ? a : b;\n  }\n\n  function max256(uint256 a, uint256 b) internal pure returns (uint256) {\n    return a >= b ? a : b;\n  }\n\n  function min256(uint256 a, uint256 b) internal pure returns (uint256) {\n    return a < b ? a : b;\n  }\n\n}\n\n\n/**\n * @title ONS\n * @dev Object Name Server \n */\ncontract ONS is Ownable, Authorizable\n{\n    using SafeMath for uint;\n\n    // GS1 code\n    struct GS1code {\n        uint gs1CodeListPointer; // needed to delete a \"GS1code\"\n        // GS1code has many \"ONSrecord\"\n        bytes32[] ONSrecordKeys;\n        mapping(bytes32 => uint) ONSrecordKeyPointers;\n    }\n    \n    mapping(bytes32 => GS1code) public GS1codes;\n    bytes32[] public GS1codeList;\n\n    // ONS record NAPTR format\n    struct ONSrecord\n    {\n        uint ONSrecordListPointer; // needed to delete a \"ONSrecord\"\n        bytes32 GS1codeKey; // ONSrecord has exactly one \"GS1code\"    \n\t\t    bytes32 ServiceTypeKey; // ONSrecord has one \"ServiceType\"\n\t\t\n        // ONS record properties\n        //uint32 order;\n        //uint32 pref;\n        uint8 flags;\n        bytes32 service;\n        string regexp;\n        //string replacement;\n    }\n    \n    mapping(bytes32 => ONSrecord) public ONSrecords;\n    bytes32[] public ONSrecordList;\n\n    // Servicetype xml\n    struct ServiceType\n    {\n\t\tuint ServiceTypeListPointer; // needed to delete a \"ServiceType\"\n       \n        // ONS ServiceType properties\n        //bytes32 _serviceTypeKeyentifier;\n        bool abstrct;\n        bytes32 extends;\n        string WSDL;\n        string homepage;\n        mapping(bytes32 => string) documentations;\n        bytes32[] obsoletes;\n        bytes32[] obsoletedBy;\n    }\n\t\n\tmapping(bytes32 => ServiceType) public ServiceTypes;\n\tbytes32[] public ServiceTypeList;\n    \n    event LogNewGS1code(address sender, bytes32 _gs1CodeKey);\n    event LogNewONSrecord(address sender, bytes32 _onsRecordKey, bytes32 _serviceTypeKey, bytes32 _gs1CodeKey);\n    event LogNewServiceType(address sender, bytes32 _serviceTypeKey);\n    event LogGS1codeDeleted(address sender, bytes32 _gs1CodeKey);\n    event LogONSrecordDeleted(address sender, bytes32 _onsRecordKey);\n    event LogServiceTypeDeleted(address sender, bytes32 _serviceTypeKey);\n    \n    /**\n    * @dev Function to get the number of GS1codes\n    * @return uint GS1codeCount.\n    */\n    function getGS1codeCount() public view returns(uint gs1CodeCount) \n    {\n        return GS1codeList.length;\n    }\n    \n    /**\n    * @dev Function to get the number of ONSrecords\n    * @return uint ONSrecordCount.\n    */\n    function getONSrecordCount() public view returns(uint ONSrecordCount)\n    {\n        return ONSrecordList.length;\n    }\n    \n\t/**\n    * @dev Function to get the number of ServiceTypes\n    * @return uint ServiceTypeCount.\n    */\n    function getServiceTypeCount() public view returns(uint ServiceTypeCount)\n    {\n        return ServiceTypeList.length;\n    }\n\t\n    /**\n    * @dev Function to check if _gs1CodeKey exist\n    * @param _gs1CodeKey the bytes32 to check if it exist.\n    * @return boolean flag if _gs1CodeKey exist.\n    */\n    function isGS1code(bytes32 _gs1CodeKey) public view returns(bool isIndeed) \n    {\n        if(GS1codeList.length==0) return false;\n        return GS1codeList[GS1codes[_gs1CodeKey].gs1CodeListPointer]==_gs1CodeKey;\n    }\n    \n    /**\n    * @dev Function to check if _onsRecordKey exist\n    * @param _onsRecordKey the bytes32 to check if it exist.\n    * @return boolean flag if _onsRecordKey exist.\n    */\n    function isONSrecord(bytes32 _onsRecordKey) public view returns(bool isIndeed) \n    {\n        if(ONSrecordList.length==0) return false;\n        return ONSrecordList[ONSrecords[_onsRecordKey].ONSrecordListPointer]==_onsRecordKey;\n    }\n\t\n\t/**\n    * @dev Function to check if _serviceTypeKey exist\n    * @param _serviceTypeKey the bytes32 to check if it exist.\n    * @return boolean flag if _serviceTypeKey exist.\n    */\n    function isServiceType(bytes32 _serviceTypeKey) public view returns(bool isIndeed) \n    {\n        if(ServiceTypeList.length==0) return false;\n        return ServiceTypeList[ServiceTypes[_serviceTypeKey].ServiceTypeListPointer]==_serviceTypeKey;\n    }\n    \n    /**\n    * @dev Function to get the number of ONSrecords which depend on _gs1CodeKey\n    * @param _gs1CodeKey the bytes32 to find the number of ONSrecords which depend on _gs1CodeKey.\n    * @return uint the number of ONSrecords which depend on _gs1CodeKey.\n    */\n    function getGS1codeONSrecordCount(bytes32 _gs1CodeKey) public view returns(uint onsRecordCount) \n    {\n        if(!isGS1code(_gs1CodeKey)) throw;\n        return GS1codes[_gs1CodeKey].ONSrecordKeys.length;\n    }\n    \n    /**\n    * @dev Function to get ONSrecordKey using index of ONSrecords included in _gs1CodeKey\n    * @param _gs1CodeKey the bytes32 to get ONSrecordKey.\n    * @param row the row to get ONSrecordKey.\n    * @return bytes32 the ONSrecordKey.\n    */\n    function getGS1codeONSrecordAtIndex(bytes32 _gs1CodeKey, uint row) public view returns(bytes32 ONSrecordKey) \n    {\n        if(!isGS1code(_gs1CodeKey)) throw;\n        return GS1codes[_gs1CodeKey].ONSrecordKeys[row];\n    }\n    \n    /**\n    * @dev Function to get ONSRecord properties using _onsRecordKey\n    * @param _onsRecordKey the bytes32 to get ONSrecord properties.\n    * @return bytes32 bytes32 _onsRecordKey_, bytes32 _gs1CodeKey_, uint8 _flags_, bytes32 _serviceTypeKey, string _regexp_.\n    */\n    function getONSrecord(bytes32 _onsRecordKey) public view returns(bytes32 _onsRecordKey_, bytes32 _gs1CodeKey_, uint8 _flags_, bytes32 _serviceTypeKey, string _regexp_) \n    {\n        bytes32 _gs1CodeKey = ONSrecords[_onsRecordKey].GS1codeKey;\n        uint8 flags = ONSrecords[_onsRecordKey].flags;\n        bytes32 service = ONSrecords[_onsRecordKey].service;\n        string regexp = ONSrecords[_onsRecordKey].regexp;\n        \n        return (_onsRecordKey, _gs1CodeKey, flags, service, regexp);\n    }\n\n\t/**\n    * @dev Function to get GS1codeKey using _onsRecordKey\n    * @param _onsRecordKey the bytes32 to get GS1codeKey.\n    * @return bytes32 the GS1codeKey.\n    */\n    function getONSrecordGS1code(bytes32 _onsRecordKey) public view returns(bytes32 GS1codeKey) \n    {\n        if(!isONSrecord(_onsRecordKey)) throw;\n        return ONSrecords[_onsRecordKey].GS1codeKey;\n    }\n\t\n\t/**\n    * @dev Function to get ServiceTypeKey using _onsRecordKey\n    * @param _onsRecordKey the bytes32 to get ServiceTypeKey.\n    * @return bytes32 the ServiceTypeKey.\n    */\n    function getONSrecordServiceType(bytes32 _onsRecordKey) public view returns(bytes32 ServiceTypeKey) \n    {\n        if(!isONSrecord(_onsRecordKey)) throw;\n        return ONSrecords[_onsRecordKey].ServiceTypeKey;\n    }\n\t\n\t/**\n    * @dev Function to get ServiceType properties using _serviceTypeKey\n    * @param _serviceTypeKey the bytes32 to get ServiceType properties.\n    * @param _languageCodeKey the bytes32 to get documentation.\n    * @return bytes32 _serviceTypeKey_, bool _abstrct_, bytes32 _extends_, string _WSDL_, string _homepage_, string _domentation_ (, bytes32 _obsoletes_, bytes32 _obsoletedBy_)\n    */\n    function getServiceType(bytes32 _serviceTypeKey, bytes32 _languageCodeKey) public view returns(bytes32 _serviceTypeKey_, bool _abstrct_, bytes32 _extends_, string _WSDL_, string _homepage_, string _domentation_/*, bytes32 _obsoletes_, bytes32 _obsoletedBy_*/) \n    {\n\t\tbool abstrct = ServiceTypes[_serviceTypeKey].abstrct;\n        bytes32 extends = ServiceTypes[_serviceTypeKey].extends;\n        string WSDL = ServiceTypes[_serviceTypeKey].WSDL;\n        string homepage = ServiceTypes[_serviceTypeKey].homepage;\n        string documentation = ServiceTypes[_serviceTypeKey].documentations[_languageCodeKey];\n        //bytes32 obsoleteLast = ServiceTypes[_serviceTypeKey].obsoletes[ServiceTypes[_serviceTypeKey].obsoletes.length-1];\n        //bytes32 obsoletedByLast = ServiceTypes[_serviceTypeKey].obsoletedBy[ServiceTypes[_serviceTypeKey].obsoletedBy.length-1];\n        \n        return (_serviceTypeKey, abstrct, extends, WSDL, homepage, documentation/*, obsoleteLast, obsoletedByLast*/);\n    }\n    \n    /**\n    * @dev Function to add new GS1code\n    * @param _gs1CodeKey the bytes32 to add new GS1code.\n    * @return boolean flag if GS1code is added.\n    */\n    function addGS1code(bytes32 _gs1CodeKey) public returns(bool success) \n    {\n        if(isGS1code(_gs1CodeKey)) throw; // duplicate key prohibited\n        GS1codes[_gs1CodeKey].gs1CodeListPointer = GS1codeList.push(_gs1CodeKey)-1;\n        LogNewGS1code(msg.sender, _gs1CodeKey);\n        return true;\n    }\n    \n    /**\n    * @dev Function to add new ONSRecord\n    * @param _onsRecordKey the bytes32 to add new ONSRecord.\n    * @param _gs1CodeKey the bytes32 to bind ONSRecord to GS1code.\n    * @param _flags the uint8 to flags ('T' or 'U')\n    * @param _serviceTypeKey the string to URI pointing ServiceType.\n    * @param _regexp the string to URI pointing service page.\n    * @return boolean flag if ONSrecord is added.\n    */\n    function addONSrecord(bytes32 _onsRecordKey, bytes32 _gs1CodeKey, uint8 _flags, bytes32 _serviceTypeKey, string _regexp) public returns(bool success) \n    {\n        if(!isGS1code(_gs1CodeKey)) throw;\n        if(isONSrecord(_onsRecordKey)) throw; // duplicate key prohibited\n        ONSrecords[_onsRecordKey].ONSrecordListPointer = ONSrecordList.push(_onsRecordKey)-1;\n        ONSrecords[_onsRecordKey].GS1codeKey = _gs1CodeKey; \n        \n        ONSrecords[_onsRecordKey].flags = _flags;\n        ONSrecords[_onsRecordKey].service = _serviceTypeKey; // This is _serviceTypeKey\n        ONSrecords[_onsRecordKey].regexp = _regexp;\n        \n        // We also maintain a list of \"ONSrecord\" that refer to the \"GS1code\", so ... \n        GS1codes[_gs1CodeKey].ONSrecordKeyPointers[_onsRecordKey] = GS1codes[_gs1CodeKey].ONSrecordKeys.push(_onsRecordKey) - 1;\n        LogNewONSrecord(msg.sender, _onsRecordKey, _serviceTypeKey, _gs1CodeKey);\n        return true;\n    }\n\t\n\t/**\n    * @dev Function to add new ServiceType\n    * @param _serviceTypeKey the bytes32 to add new serviceType.\n    * @param _abstrct the boolean to notice that serviceType is abstrct or not.\n    * @param _extends the bytes32 to point extends serviceType.\n    * @param _WSDL the string to URI of WSDL.\n    * @param _homepage the string to URI pointing serviceType homepage.\n    * @param _languageCodeKey the bytes32 to string of languageCode.\n    * @param _location the string to point URI of documentation location.\n    * @param _obsoletes the array of bytes32 to point obsoletes serviceType.\n    * @param _obsoletedBy the array of bytes32 to point obsoleteBy serviceTypes.    \n    * @return boolean flag if ONSrecord is added.\n    */\n    function addServiceType(bytes32 _serviceTypeKey, bool _abstrct, bytes32 _extends, string _WSDL, string _homepage, bytes32 _languageCodeKey, string _location, bytes32 _obsoletes, bytes32 _obsoletedBy) public returns(bool success) \n    {\n        if(!isServiceType(_serviceTypeKey)) throw; // duplicate key prohibited\n        ServiceTypes[_serviceTypeKey].ServiceTypeListPointer = ServiceTypeList.push(_serviceTypeKey)-1;\n\t\t\n\t\tServiceTypes[_serviceTypeKey].abstrct = _abstrct;\n\t\tServiceTypes[_serviceTypeKey].extends = _extends;\n\t\tServiceTypes[_serviceTypeKey].WSDL = _WSDL;\n\t\tServiceTypes[_serviceTypeKey].homepage = _homepage;\n\t\tServiceTypes[_serviceTypeKey].documentations[_languageCodeKey] = _location;\n\t\tServiceTypes[_serviceTypeKey].obsoletes[ServiceTypes[_serviceTypeKey].obsoletes.length] = _obsoletes;\n\t\tServiceTypes[_serviceTypeKey].obsoletedBy[ServiceTypes[_serviceTypeKey].obsoletedBy.length] = _obsoletedBy;\n       \n        LogNewServiceType(msg.sender, _serviceTypeKey);\n        return true;\n    }\n\n    /**\n    * @dev Function to delete GS1code\n    * @param _gs1CodeKey the bytes32 to delete GS1code. \n    * @return boolean flag if GS1code is deleted.\n    */\n    function deleteGS1code(bytes32 _gs1CodeKey) onlyOwner returns(bool succes) \n    {\n        if(!isGS1code(_gs1CodeKey)) throw;\n        \n        // the following would break referential integrity\n        if(GS1codes[_gs1CodeKey].ONSrecordKeys.length > 0) throw; \n        \n        uint rowToDelete = GS1codes[_gs1CodeKey].gs1CodeListPointer;\n        bytes32 keyToMove = GS1codeList[GS1codeList.length-1];\n        GS1codeList[rowToDelete] = keyToMove;\n        GS1codes[keyToMove].gs1CodeListPointer = rowToDelete;\n        GS1codeList.length--;\n        LogGS1codeDeleted(msg.sender, _gs1CodeKey);\n        return true;\n    }    \n\n    /**\n    * @dev Function to delete ONSRecord\n    * @param _onsRecordKey the bytes32 to delete ONSRecord. \n    * @return boolean flag if ONSRecord is deleted.\n    */\n    function deleteONSrecord(bytes32 _onsRecordKey) onlyOwner returns(bool success) \n    {\n        if(!isONSrecord(_onsRecordKey)) throw; // non-existant key\n        \n        // delete from the Many table\n        uint rowToDelete = ONSrecords[_onsRecordKey].ONSrecordListPointer;\n        bytes32 keyToMove = ONSrecordList[ONSrecordList.length-1];\n        ONSrecordList[rowToDelete] = keyToMove;\n        ONSrecords[_onsRecordKey].ONSrecordListPointer = rowToDelete;\n        ONSrecordList.length--;\n        \n        // we ALSO have to delete this key from the list in the GS1code\n        bytes32 _gs1CodeKey = ONSrecords[_onsRecordKey].GS1codeKey; \n        rowToDelete = GS1codes[_gs1CodeKey].ONSrecordKeyPointers[_onsRecordKey];\n        keyToMove = GS1codes[_gs1CodeKey].ONSrecordKeys[GS1codes[_gs1CodeKey].ONSrecordKeys.length-1];\n        GS1codes[_gs1CodeKey].ONSrecordKeys[rowToDelete] = keyToMove;\n        GS1codes[_gs1CodeKey].ONSrecordKeyPointers[keyToMove] = rowToDelete;\n        GS1codes[_gs1CodeKey].ONSrecordKeys.length--;\n        LogONSrecordDeleted(msg.sender, _onsRecordKey);\n        return true;\n    }\n\t\n\t/**\n    * @dev Function to delete ServiceType\n    * @param _serviceTypeKey the bytes32 to delete ServiceType. \n    * @return boolean flag if ServiceType is deleted.\n    */\n    function deleteServiceType(bytes32 _serviceTypeKey) onlyOwner returns(bool succes) \n    {\n\t\t// this function will be never used\n        if(isServiceType(_serviceTypeKey)) throw;\n         \n        uint rowToDelete = ServiceTypes[_serviceTypeKey].ServiceTypeListPointer;\n        bytes32 keyToMove = ServiceTypeList[ServiceTypeList.length-1];\n        ServiceTypeList[rowToDelete] = keyToMove;\n        ServiceTypes[keyToMove].ServiceTypeListPointer = rowToDelete;\n        ServiceTypeList.length--;\n        LogServiceTypeDeleted(msg.sender, _serviceTypeKey);\n        return true;\n    }\n    \n}\n\n",
  "sourcePath": "/mnt/d/paper/project/Ethereum-ONS-ObjectNameService/src/contracts/ONS.sol",
  "compiler": {
    "name": "solc",
    "version": "0.4.19+commit.c4cbbb05.Emscripten.clang"
  },
  "schemaVersion": "2.0.0",
  "updatedAt": "2018-03-08T05:43:58.664Z"
}